{"abi":[{"type":"constructor","inputs":[{"name":"_minimumLoanAmount","type":"uint256","internalType":"uint256"},{"name":"_maximumLoanAmount","type":"uint256","internalType":"uint256"},{"name":"_interestRate","type":"uint256","internalType":"uint256"},{"name":"_loanDuration","type":"uint256","internalType":"uint256"}],"stateMutability":"nonpayable"},{"type":"receive","stateMutability":"payable"},{"type":"function","name":"calculateInterest","inputs":[{"name":"_amount","type":"uint256","internalType":"uint256"}],"outputs":[{"name":"","type":"uint256","internalType":"uint256"}],"stateMutability":"view"},{"type":"function","name":"getLoanDetails","inputs":[{"name":"_borrower","type":"address","internalType":"address"}],"outputs":[{"name":"amount","type":"uint256","internalType":"uint256"},{"name":"startTime","type":"uint256","internalType":"uint256"},{"name":"endTime","type":"uint256","internalType":"uint256"},{"name":"interest","type":"uint256","internalType":"uint256"},{"name":"isActive","type":"bool","internalType":"bool"},{"name":"isPaid","type":"bool","internalType":"bool"}],"stateMutability":"view"},{"type":"function","name":"interestRate","inputs":[],"outputs":[{"name":"","type":"uint256","internalType":"uint256"}],"stateMutability":"view"},{"type":"function","name":"loanDuration","inputs":[],"outputs":[{"name":"","type":"uint256","internalType":"uint256"}],"stateMutability":"view"},{"type":"function","name":"loans","inputs":[{"name":"","type":"address","internalType":"address"}],"outputs":[{"name":"amount","type":"uint256","internalType":"uint256"},{"name":"startTime","type":"uint256","internalType":"uint256"},{"name":"endTime","type":"uint256","internalType":"uint256"},{"name":"interest","type":"uint256","internalType":"uint256"},{"name":"isActive","type":"bool","internalType":"bool"},{"name":"isPaid","type":"bool","internalType":"bool"}],"stateMutability":"view"},{"type":"function","name":"maximumLoanAmount","inputs":[],"outputs":[{"name":"","type":"uint256","internalType":"uint256"}],"stateMutability":"view"},{"type":"function","name":"minimumLoanAmount","inputs":[],"outputs":[{"name":"","type":"uint256","internalType":"uint256"}],"stateMutability":"view"},{"type":"function","name":"owner","inputs":[],"outputs":[{"name":"","type":"address","internalType":"address"}],"stateMutability":"view"},{"type":"function","name":"repayLoan","inputs":[],"outputs":[],"stateMutability":"payable"},{"type":"function","name":"requestLoan","inputs":[{"name":"_amount","type":"uint256","internalType":"uint256"}],"outputs":[],"stateMutability":"nonpayable"},{"type":"function","name":"updateParameters","inputs":[{"name":"_minimumLoanAmount","type":"uint256","internalType":"uint256"},{"name":"_maximumLoanAmount","type":"uint256","internalType":"uint256"},{"name":"_interestRate","type":"uint256","internalType":"uint256"},{"name":"_loanDuration","type":"uint256","internalType":"uint256"}],"outputs":[],"stateMutability":"nonpayable"},{"type":"function","name":"withdrawFunds","inputs":[],"outputs":[],"stateMutability":"nonpayable"},{"type":"event","name":"LoanRepaid","inputs":[{"name":"borrower","type":"address","indexed":false,"internalType":"address"},{"name":"amount","type":"uint256","indexed":false,"internalType":"uint256"},{"name":"interest","type":"uint256","indexed":false,"internalType":"uint256"}],"anonymous":false},{"type":"event","name":"LoanRequested","inputs":[{"name":"borrower","type":"address","indexed":false,"internalType":"address"},{"name":"amount","type":"uint256","indexed":false,"internalType":"uint256"},{"name":"interest","type":"uint256","indexed":false,"internalType":"uint256"}],"anonymous":false}],"bytecode":{"object":"0x6080604052348015600f57600080fd5b506040516109ef3803806109ef833981016040819052602c916054565b600080546001600160a01b031916331790556001939093556002919091556003556004556089565b60008060008060808587031215606957600080fd5b505082516020840151604085015160609095015191969095509092509050565b610957806100986000396000f3fe6080604052600436106100ab5760003560e01c80638da5cb5b116100645780638da5cb5b146101ca578063a57475e014610202578063e8a7da8e14610222578063ee1eab4f146102b6578063f5521bf1146102d6578063f966ade7146102ec57600080fd5b80630dcfd878146100b757806313108e0b146100e057806324600fc3146100f657806373b4086b1461010d5780637c3a00fd146101945780638d5d3429146101aa57600080fd5b366100b257005b600080fd5b3480156100c357600080fd5b506100cd60025481565b6040519081526020015b60405180910390f35b3480156100ec57600080fd5b506100cd60015481565b34801561010257600080fd5b5061010b6102f4565b005b34801561011957600080fd5b506101636101283660046107f0565b600560205260009081526040902080546001820154600283015460038401546004909401549293919290919060ff8082169161010090041686565b60408051968752602087019590955293850192909252606084015215156080830152151560a082015260c0016100d7565b3480156101a057600080fd5b506100cd60035481565b3480156101b657600080fd5b5061010b6101c5366004610820565b6103a9565b3480156101d657600080fd5b506000546101ea906001600160a01b031681565b6040516001600160a01b0390911681526020016100d7565b34801561020e57600080fd5b506100cd61021d366004610820565b6105d8565b34801561022e57600080fd5b5061016361023d3660046107f0565b6001600160a01b0316600090815260056020908152604091829020825160c08101845281548082526001830154938201849052600283015494820185905260038301546060830181905260049093015460ff80821615156080850181905261010090920416151560a09093018390529095939493909190565b3480156102c257600080fd5b5061010b6102d1366004610839565b61060a565b3480156102e257600080fd5b506100cd60045481565b61010b610648565b6000546001600160a01b031633146103275760405162461bcd60e51b815260040161031e9061086b565b60405180910390fd5b478061036c5760405162461bcd60e51b81526020600482015260146024820152734e6f2066756e647320746f20776974686472617760601b604482015260640161031e565b600080546040516001600160a01b039091169183156108fc02918491818181858888f193505050501580156103a5573d6000803e3d6000fd5b5050565b3360009081526005602052604090206004015460ff161561040c5760405162461bcd60e51b815260206004820152601f60248201527f596f7520616c7265616479206861766520616e20616374697665206c6f616e00604482015260640161031e565b600154811015801561042057506002548111155b61046c5760405162461bcd60e51b815260206004820152601860248201527f4c6f616e20616d6f756e74206f7574206f662072616e67650000000000000000604482015260640161031e565b804710156104bc5760405162461bcd60e51b815260206004820152601d60248201527f496e73756666696369656e7420636f6e74726163742062616c616e6365000000604482015260640161031e565b60006104c7826105d8565b90506000600454426104d991906108c2565b6040805160c08101825285815242602080830191825282840185815260608401888152600160808601818152600060a08801818152338083526005909752898220985189559651928801929092559251600287015590516003860155905160049094018054935115156101000261ff00199515159590951661ffff1990941693909317939093179091559151929350909185156108fc0291869190818181858888f19350505050158015610591573d6000803e3d6000fd5b5060408051338152602081018590529081018390527f7468760830aff5679376e50470c0493d21c88c599388e89b08c9512b3f3fbc7d9060600160405180910390a1505050565b600063bbf81e00600454600354846105f091906108d5565b6105fa91906108d5565b61060491906108ec565b92915050565b6000546001600160a01b031633146106345760405162461bcd60e51b815260040161031e9061086b565b600193909355600291909155600355600455565b336000908152600560205260409020600481015460ff166106a25760405162461bcd60e51b8152602060048201526014602482015273139bc81858dd1a5d99481b1bd85b88199bdd5b9960621b604482015260640161031e565b6004810154610100900460ff16156106f05760405162461bcd60e51b8152602060048201526011602482015270131bd85b88185b1c9958591e481c185a59607a1b604482015260640161031e565b60038101548154600091610703916108c2565b9050803410156107555760405162461bcd60e51b815260206004820152601d60248201527f496e73756666696369656e742072657061796d656e7420616d6f756e74000000604482015260640161031e565b60048201805461ffff1916610100179055348110156107a657336108fc61077c833461090e565b6040518115909202916000818181858888f193505050501580156107a4573d6000803e3d6000fd5b505b815460038301546040805133815260208101939093528201527fc7ce0a35f17b490de2a317e7fecb2cae86b1abffb03800b2f4928235213826989060600160405180910390a15050565b60006020828403121561080257600080fd5b81356001600160a01b038116811461081957600080fd5b9392505050565b60006020828403121561083257600080fd5b5035919050565b6000806000806080858703121561084f57600080fd5b5050823594602084013594506040840135936060013592509050565b60208082526021908201527f4f6e6c79206f776e65722063616e2063616c6c20746869732066756e6374696f6040820152603760f91b606082015260800190565b634e487b7160e01b600052601160045260246000fd5b80820180821115610604576106046108ac565b8082028115828204841417610604576106046108ac565b60008261090957634e487b7160e01b600052601260045260246000fd5b500490565b81810381811115610604576106046108ac56fea26469706673582212200323bbac01db47b5ed1453ae31cd573e4fd225c6bd5ed0d1e6a3844e3eb15c2664736f6c634300081c0033","linkReferences":{}},"methodIdentifiers":{"calculateInterest(uint256)":"a57475e0","getLoanDetails(address)":"e8a7da8e","interestRate()":"7c3a00fd","loanDuration()":"f5521bf1","loans(address)":"73b4086b","maximumLoanAmount()":"0dcfd878","minimumLoanAmount()":"13108e0b","owner()":"8da5cb5b","repayLoan()":"f966ade7","requestLoan(uint256)":"8d5d3429","updateParameters(uint256,uint256,uint256,uint256)":"ee1eab4f","withdrawFunds()":"24600fc3"},"id":20}